:020000040800F2
:10800000F819002089810008D9810008D981000869
:10801000D9810008D9810008D9810008000000003A
:10802000000000000000000000000000D9810008EE
:10803000D981000800000000D9810008DD81000816
:10804000D9810008D9810008D9810008D9810008A8
:10805000D9810008D9810008D9810008D981000898
:10806000D9810008D9810008D9810008D981000888
:10807000D9810008D9810008D9810008D981000878
:10808000D9810008D9810008D9810008D981000868
:10809000D9810008D9810008D9810008D981000858
:1080A000D9810008D9810008D9810008D981000848
:1080B000D9810008D9810008D9810008D981000838
:1080C000D9810008D9810008D9810008D981000828
:1080D000D9810008D9810008D9810008D981000818
:1080E000D9810008D9810008D9810008D981000808
:1080F000D9810008D9810008D9810008D9810008F8
:10810000000000000000000000000000D98100080D
:10811000D9810008D9810008D9810008D9810008D7
:10812000D9810008D9810008D9810008D9810008C7
:10813000D9810008D981000800000000000000007B
:10814000D9810008D9810008D98100080000000009
:10815000000000000000000000000000000000001F
:108160000000000000000000D9810008D98100084B
:10817000D98100080000000000000000000000009D
:1081800000000000D9810008DFF834D000F025F8A5
:108190000C480D490D4A002302E0D458C450043362
:1081A000C4188C42F9D30A4A0A4C002301E0136038
:1081B0000432A242FBD302F07FFC02F059FCFEE73E
:1081C000F8190020000000200000002050AE000838
:1081D00000000020F4090020FEE77047024A1368FF
:1081E00001331360704700BF00000020214B1A6864
:1081F00042F480321A601A689103FCD51E490A685D
:1082000022F0070242F002020A6059681B4A0A4043
:1082100042F4E81242F480625A601A6842F08072B6
:108220001A601A689201FCD55A6822F0030242F0E3
:1082300002025A605A6802F00C02082AFAD15A69FE
:1082400042F49C025A615A6942F080525A61DA69DA
:1082500042F0925242F40032DA619A6942F480525A
:108260009A614FF0E023064A5A6100229A61072280
:108270001A61704700100240002002400FC002FC4B
:108280003F190100014B1868704700BF0000002033
:10829000034A116813685B1A8342FBD3704700BF1F
:1082A000000000200C4B4FF000629A614FF080629A
:1082B0009A614FF480329A614FF480229A614FF4B0
:1082C00000329A614FF400229A6120229A61034B96
:1082D00000221A70704700BF00040048040000200C
:1082E000084A0949137830B14FF40060886143F0BF
:1082F0000103137070474FF00060886103F0FE03C4
:10830000F7E700BF0400002000040048084A0949BC
:10831000137830B14FF48060886143F0020313702A
:1083200070474FF08060886103F0FD03F7E700BFFE
:108330000400002000040048074A0849137828B1C7
:108340000120886143F00403137070474FF48030BC
:10835000886103F0FB03F7E70400002000040048F5
:10836000074A0849137828B10420886143F00803BC
:10837000137070474FF48020886103F0F703F7E72C
:108380000400002000040048084B4FF000629A618E
:108390004FF080629A614FF480329A614FF48022EC
:1083A0009A61034B00221A70704700BF0004004816
:1083B00004000020014B1878704700BF0400002023
:1083C0004FF09043104A196903F58063C1F300111F
:1083D0001B6912690170C2F38032C270C3F340128C
:1083E0000271C3F3C022C3F300314271C3F3802290
:1083F00041708271C3F3001103F00102C3F38003E3
:108400008170C27103727047000800484FF09043BA
:108410001A6822F0F0021A601A6842F0A0021A608C
:108420001A6A22F47F421A621A6A42F4EE421A620F
:10843000034B4FF49C72DA600D221A60704700BF44
:1084400000440040074B0144884203D1DA695206D8
:10845000FCD57047DA691206FCD510F8012B1A8595
:10846000F2E700BF00440040024BD869C0F340105F
:10847000704700BF00440040014B988CC0B2704769
:10848000004400404FF090431A6822F47C421A6086
:108490001A6842F428421A601A6AC2F313021A6276
:1084A0001A6A42F0AA4242F4A0021A621A6822F43E
:1084B00040721A601A6842F480721A6010229A613F
:1084C000D3F8002422F04072C3F80024D3F800242B
:1084D00042F08072C3F800244FF48052C3F818248D
:1084E000074B40F21F321A604FF4E0625A601A687C
:1084F00042F040021A60034B00221A70704700BF1E
:10850000003001400500002040B94FF090434FF487
:1085100080129A61034B01221A707047024B4FF090
:108520008052F6E7050000200004004838B94FF0FB
:10853000904310229A61044B00221A707047034B3B
:108540004FF48052F6E700BF050000200004004809
:108550000C4B30B50024A5B2AA4203D89A68120683
:10856000FCD430BD9D68AD07FCD548B1055D1D73D9
:108570009D68ED07FCD51D7B01B10D550134EAE77F
:10858000FF25F4E7003001400A460021FFF7E0BF75
:108590004FF090431A6822F470121A601A6842F47D
:1085A00020121A605A6842F4C0625A605A6A22F471
:1085B0007F625A625A6A42F488625A62704709209E
:1085C000704738B54FF090434FF0A0441A6822F03E
:1085D0000C021A601A6842F00C021A6003F1784328
:1085E00003F5043301205A6942F080525A61DA6A75
:1085F00022F4F872DA62DA6A42F48072DA62A3680C
:1086000023F04053A360A36843F08053A360FFF7B7
:108610003FFEA36823F08043A360A36843F00043B8
:10862000A360FFF72FFE0546A368002B04DAFFF7CF
:1086300029FE401B0928F7D94FF0A044236843F0D6
:1086400001032360A36843F00103A360FFF71AFE50
:1086500005462368DB0704D4FFF714FE401B0928F6
:10866000F7D94FF0A0430022DA604FF4E0725A616C
:1086700080221A6338BD70B54FF0A0440546A36848
:1086800043F00403A360FFF7FDFD064623685B0784
:1086900005D5236CC3F30B032B80002009E0FFF703
:1086A000F1FD801B0428F1D9A36843F01003A360F7
:1086B000012070BD4FF090431A6822F070721A606A
:1086C0001A6842F020721A605A6A22F47F225A62B3
:1086D0005A6A42F419225A6270470000074B18691F
:1086E00010F0800009D0064A5A6002F188325A60C0
:1086F0001869C0F3C010C000C0B27047002002402B
:1087000023016745024A136943F0800313617047F0
:10871000002002400548064BDA68D20700D518B998
:10872000B0FA80F0400970470138F5E7A0860100F3
:108730000020024038B5194CA042014602D0184B27
:10874000984227D1FFF7CAFF30BB154D154BA14208
:1087500018BF1D46144CFFF7DDFF18B1FFF7D2FF1D
:10876000012038BD236943F002032361616123695D
:1087700043F040032361FFF7CDFF236923F0020399
:1087800023610028EAD101F50061A942E3D1FFF796
:10879000B9FFE6E70520E4E70820E2E700700308F8
:1087A0000090030800B0030800200240224B9842CA
:1087B0002DE9F041054690463CD303F5005398421D
:1087C000024428BF03F500539A4233D840EA080612
:1087D00016F001062ED1FFF781FF044640BB174A71
:1087E000136943F0010313610131464503D2FFF7DA
:1087F00091FF50B10124114A136923F00103136161
:10880000FFF780FF2046BDE8F0810B7811F8017C6E
:1088100047EA03277753FFF77DFF0028EAD1735B10
:108820009BB29F4202D102310236DEE70824E2E722
:108830000824E7E70524E5E700700308002002406C
:108840000B460146184602F05BB90000F0B5164D24
:108850002A78BAB9154E1346082403F480475B0002
:108860001FB183F48B4383F01903013CF5D18032AF
:1088700092B2C3F30E03B2F5004F26F8023BEAD1E1
:1088800001232B70094C01441023884201D1580068
:10889000F0BD10F8012B82EAD31234F8122082EADC
:1088A0000323C3F30E03F0E70600002008000020B6
:1088B00013B50446FFF728FEFF2301210DF1070041
:1088C0008DF80730FFF760FE2046FFF72FFE0120EE
:1088D000FFF7DEFC02B010BD13B549BA0446ADF88F
:1088E000041001A80221FFF7B1FF40BAADF806005D
:1088F0002046FFF7DDFF2046FFF706FE04210DEBC3
:108900000100FFF741FE2046FFF710FE002002B0F5
:1089100010BD73B549BA0546ADF8041001A802218F
:108920001E461446FFF792FF40BAADF806002846EF
:10893000FFF7BEFF2846FFF7E7FD04210DEB01001E
:10894000FFF722FE062303FB0646B44205D1284664
:10895000FFF7ECFD002002B070BD06212046FFF7B6
:1089600075FF40BAADF8000006212046FFF70CFE67
:1089700002216846FFF708FE0634E6E738B50D46E3
:108980000446FFF7C1FD294600200122FFF7E0FD64
:108990002046BDE83840FFF7C9BD2DE9F04F8DB046
:1089A00049BA0446ADF8041001A802211F469146B9
:1089B000DDF85880FFF74AFF40BAADF806002046C0
:1089C000FFF776FF2046FFF79FFD04210DEB010026
:1089D000FFF7DAFDFA0002A90020FFF7B9FD2046F3
:1089E000FFF7A4FD002502ACAA464FF0060BBD42DE
:1089F00006D14FEA4A0000F0FE000DB0BDE8F08F4E
:108A0000E688062176BA2046B6B2FFF71FFFB8F116
:108A1000000F04D0321A5342534108F805300BFBC3
:108A200005F309EB0302864218BF4AF0010A2068E9
:108A300049F80300A388938001350834D7E737B598
:108A400004460220FFF724FCFFF71CFC0023054628
:108A50008DF80430FFF716FC401B0E2802D90120C8
:108A600003B030BD40F214712046FFF735FF01A975
:108A70002046FFF783FF9DF80430FF2B03D0012031
:108A8000FFF706FCE6E70020EAE770B590B0054680
:108A90000C46FFF70DFF1E220021684602F004F885
:108AA00000216B46F8260A46C8B2844213D82346F2
:108AB0006A4601212846FFF72CFF50B901461E22C5
:108AC00008A801F0F1FF234608AA24212846FFF751
:108AD00020FF10B070BD03F8066B013103F8052CC0
:108AE00003F8042C03F8032C03F8022C03F8012CE0
:108AF000DAE700002DE9F04F80468FB08946144632
:108B00009A46FFF7D5FE4FF458714046FFF7E4FE52
:108B1000054628BB4046FFF792FF054600BB53467B
:108B20000AEB0902012193421ED104F11E03DFF872
:108B300074B0039300250A2704AE00963BF8021B8D
:108B40004B4606AA4046FFF728FF06AB2246002107
:108B5000C8B248450BD3039B06349C42ECD16D0050
:108B600028460FB0BDE8F08F03F8011BDBE716F8CD
:108B7000010B10B90AF8010001251888B0FBF7F0C5
:108B800001311080063333F8040CB0FBF7F01E32CD
:108B900022F81C0C33F8020CB0FBF7F022F81A0C88
:108BA000D6E700BF20AD000830B5012889B00C46DB
:108BB000154619D11E220021684601F075FF69464D
:108BC0000022C5F30620D3B29C4207D823466A464A
:108BD00024210120FFF79DFE09B030BD01F8065B9E
:108BE000013201F8050CEEE70620F5E730B5012863
:108BF00089B004460D460CD11E220021684601F0C2
:108C000053FF2B466A4624212046FFF782FE09B017
:108C100030BD0620FBE770B50D4696B0144600281F
:108C200047D102AB009306AA0B460221FFF7B5FE1F
:108C3000014600BB06AB04EB45062046B0421DD101
:108C400001212B4606AA0020FFF763FE014690B9DA
:108C500004AB009326212B460EAAFFF79EFE014689
:108C600048B90EAAB44218D124212B460EAA0020DE
:108C7000FFF74FFE0146084616B070BD30F8022BD4
:108C80005979C2F30E0221F00F011A71C2F30322C7
:108C90000A43063303F8012CD0E712F8061B34F818
:108CA000023B21F00701C3F302330B4302F8063CF9
:108CB000D8E70621DFE71FB5002301AACDE901337C
:108CC000ADF80C30FFF7A7FF05B000BD2DE9F04F60
:108CD000DDB004460D460392002840F0EA80FFF71D
:108CE000E7FD20464FF40A71FFF7F6FD0446002821
:108CF00040F09380FFF7A3FE0446002840F08C80EC
:108D000004AE034632460120D9B28D4200F289807A
:108D1000694B02930DF1D80847469A464FF00A096D
:108D200006AB00933AF8021B2B4608AA0020FFF777
:108D300034FE0DF1180C3A4608AB00210DF1100E6F
:108D4000C8B2854271D80134E4B2052C07F1060798
:108D5000E6D132460023D9B28D427FD80020FFF7FA
:108D6000A7FD4FF41A710020FFF7B6FD0446002856
:108D700053D1FFF764FE044600284DD10346324626
:108D80000120D9B28D4271D80DF14009CA460027A1
:108D90004FF00A0B029806AB009330F8021B0290CA
:108DA0002B4608AA0020FFF7F8FD0DF1180C5346DA
:108DB00008AA00210DF1100EC8B2A8425AD30137FB
:108DC000FFB2052F0AF1060AE4D10023DAB2954278
:108DD00069D80023DAB2AA421FD2039AC3EB031068
:108DE000104446464F460F2237F8021B36F802CB96
:108DF000A1EB0C01B1F5C87F02F1FF32D4BF002115
:108E0000012112F0FF0200F8011BEDD1013309F13D
:108E10001E0908F11E08DDE7012420465DB0BDE80B
:108E2000F08F02F8010B01336EE71CF8010B08B953
:108E300001F80E001888B0FBF9F0013110800633FC
:108E400033F8040CB0FBF9F01E3222F81C0C33F896
:108E5000020CB0FBF9F022F81A0C71E712F8011BB2
:108E6000013300297FF477AF0224D6E702F8010B23
:108E7000013386E71CF8010B08B901F80E001088D1
:108E8000B0FBFBF001311880063232F8040CB0FB65
:108E9000FBF01E3323F81C0C32F8020CB0FBFBF085
:108EA00023F81A0C88E716F8012B0133002A8DD11C
:108EB000DAE70524B1E700BF20AD00082DE9F04353
:108EC0008DB00D4681460DF1100802AE17461C46C6
:108ED000FFF7EEFC00962B46424602214846FFF77C
:108EE0005CFD28B901464FF0060E854203D14800CB
:108EF0000DB0BDE8F083325C3A540EFB00F304EB96
:108F0000030C2AB9E2500121ACF804200130ECE74F
:108F100058F8039044F8039008EB03029388ACF8E8
:108F20000430F3E773B5022306460C4601AA19463E
:108F30004020FFF744FBA0B9022301AA01214020F1
:108F4000BDF80450FFF73BFB58B9BDF804306DBACB
:108F5000DBBAC5F3CC0503EB8303AD001B01356021
:108F6000236002B070BD000030B5BBB00146E22204
:108F700001A801F0C5FD0023ADF81230ADF81430A2
:108F800001AA4FF0FF3012F8011B48400821074C9E
:108F900040F300052C40013984EA5000F7D1013339
:108FA0009BB2E22BEFD1C0433BB030BD2083B8ED84
:108FB0000268934B9A4270B505460C4604D009B13D
:108FC00000232380072040E18388012B03D0002960
:108FD000F8D00423F5E7C388E22B03D00029F1D0B1
:108FE0000623EEE70389012B03D00029EAD00823EA
:108FF000E7E7D0F80A30013303D10029E2D00A2391
:10900000DFE7D0F80E60FFF7AFFF864203D0002CF9
:10901000D8D00E23D5E705F1110305F13F0213F86F
:10902000011F19B1002CCDD01223CAE79342F6D10B
:1090300095F840304B2B03D0002CC3D04023C0E721
:1090400095F841304B2B03D0002CBBD04123B8E71F
:10905000B5F842301BB1002CB4D04223B1E7B5F8CB
:109060004630B5F844209A4203D3002CAAD04423BA
:10907000A7E7B5F84C20934203D3002CA2D0462397
:109080009FE7B5F848309A4203D3002C9AD04C237E
:1090900097E7B5F84A10994203D8002C92D048239C
:1090A0008FE7B5F84E109B1A994203DB002C89D04C
:1090B0004E2386E7B5F95630B5F954209A4204DBC1
:1090C000002C3FF47FAF54237BE7B5F95C2093423B
:1090D00004DD002C3FF476AF562372E7B5F95A3021
:1090E000B5F95810994204DB002C3FF46BAF5823BC
:1090F00067E79A4204DA002C3FF464AF5A2360E732
:10910000B5F96020B5F95E309A4204DD002C3FF4D9
:1091100059AF602355E76B6EAA6E9A4204D9002CB2
:109120003FF450AF68234CE723B9002C3FF44AAF1B
:10913000642346E7B5F86C30323B312B04D9002C60
:109140003FF440AF6C233CE7D5F86E3023B9002CD8
:109150003FF438AF6E2334E7B5F87230013B132B80
:1091600004D9002C3FF42EAF72232AE76B6F23B98A
:10917000002C3FF427AF742323E7AB6F23B9002CF7
:109180003FF420AF78231CE7B5F87C3023B9002CDE
:109190003FF418AF7C2314E7D5F88030632B04D854
:1091A000002C3FF40FAF80230BE795F88D30072B91
:1091B00004D9002C3FF406AF842302E795F89730DA
:1091C000072B04D9002C3FF4FDAE8E23F9E695F869
:1091D000A130072B04D9002C3FF4F4AE9823F0E61D
:1091E000D5F8A23023B9002C3FF4ECAEA223E8E678
:1091F000B5F8AA3033B9002C3FF4E4AEAA23E0E678
:109200000100CCBBB5F8AE3023B9002C3FF4DAAE88
:10921000AE23D6E6B5F8B630B3F5006F04D3002C14
:109220003FF4D0AEB623CCE605F1B903E13513F82F
:10923000010F20B1002C3FF4C5AEBA23C1E6AB420A
:10924000F5D114B14FF6FF73238070BD004870470D
:109250000802002037B50DF106010546FFF7A8FE0C
:10926000044620B90348E222294601F049FC204681
:1092700003B030BD08020020F0B5ADF5677D0DF1FB
:1092800002010746FFF794FE00285AD12F48E22238
:1092900002A9FFF7D5FA2E48E2223BA9FFF7D0FA40
:1092A00001A902A8FFF784FE0DF1060106463BA8BE
:1092B000FFF77EFE002E3DD1DDF8124030B9DDF81B
:1092C000F630A34202D35C1C204E01E0204E013454
:1092D000E222394674A801F013FC002374A8CDF8EB
:1092E000DA41ADF8DE31ADF8E031FFF73DFECDF803
:1092F000DE013046FFF71EFA0446B8B9E22274A92F
:109300003046FFF753FA044680B9E222ADA9304651
:10931000FFF796FA0DF10201ADA8FFF749FE0446EA
:1093200088B90C48E22274A901F0EAFB20460DF549
:10933000677DF0BDDDF8F640002818BF0024013439
:10934000C2E70724F2E70824F0E700BF0070030833
:10935000009003080802002010B505490446E222E7
:1093600001F0CEFB2046FFF7FFFDC4F80E0010BD54
:109370002AAD000830B5F5B002AC1948E22221460A
:10938000FFF75EFA1748E2223BA9FFF759FA0DF101
:1093900006012046FFF70CFE0DF1060105463BA82D
:1093A000FFF706FE9DB978B9D4F80A10DDF8F6305B
:1093B0003BA8E222994234BF014621460A4801F007
:1093C0009FFB002075B030BDE2222146F6E710B9C0
:1093D000E2223BA9F2E70448FFF7BEFF0720F1E7CE
:1093E000007003080090030808020020F0B5A9B03F
:1093F0006B4602AA05210020FFF77CFB0446FEF71E
:1094000041FF1A4BC3F8E40004BB962202A9184698
:1094100001F076FB6A46034600F19505214612F8F5
:10942000017B2E460F20013810F0FF0006F8017F67
:10943000F9D10F31C9B24B2905F10F05EFD183F8EE
:10944000E80000F059FA204629B0F0BD022283F866
:10945000E82000214B2203F1960001F025FB022CAD
:10946000F1D1002000F016FAEDE700BFEC03002078
:1094700070B5A8B0FFF7EAFE47F6FF720646052171
:109480000120FFF791FB2B4D044650B1052101202F
:10949000FFF7ACFB022385F8E830012000F0FAF971
:1094A00031E0B6F87C00FEF7F3FE6B4602AA052118
:1094B0000120FFF71FFB052104460120FFF796FB63
:1094C0000646FEF7DFFEC5F8E400FCB92246294651
:1094D0004FF40044084600230133DBB20F2B20F881
:1094E000024BF9D10F32D2B24B2A01F11E01F1D158
:1094F0000021114801F0D8FA0023012085F8E83056
:1095000000F0FAF93446204628B070BD022385F8F1
:10951000E8304B212B464FF40042013911F0FF0196
:1095200023F8022BF9D104484B2201F0BDFA022C9A
:10953000E9D1B2E7000300209603002010B5074CE4
:1095400023739DF8083063739DF80C30A260C4E962
:109550000001A373FEF796FE206110BDEC0200200F
:109560002DE9F04786B0FFF771FE4FF00044074643
:10957000002605A904A8CDE90446FFF7D3FC05465B
:10958000002842D100F0E0F9049BB7F8AA40B7F8F0
:10959000AE805C434FF47A7394FBF3F4B7F9AC30CC
:1095A0001C44059B03FB08F81D4B98FBF3F8B7F927
:1095B000B0304FF0010998444FF0000A0DF10E0051
:1095C000ADF80EA0FFF757F8064628BBBDF80E1001
:1095D00040F6E4435943D7F8A230091359434FF4F6
:1095E0007A7391FBF3F1D7F8A63019440123CDE942
:1095F000003920464B464246FFF7A0FF002D14BF1E
:109600002846304606B0BDE8F08700F08DF9B14637
:1096100001F02CF9B046CFE74FF000415346E6E7A2
:1096200040420F0000487047EC030020004870479C
:109630000003002000487047EC020020012330B5F1
:10964000C0F12002A0F1200403FA04F423FA02F28C
:1096500044EA02050B4A8340D2E9004059B128434D
:109660001C43C2E90040084AD2E9000118432943DB
:10967000C2E9000130BD24EA030420EA0500C2E982
:109680000040F7E7E8040020E00400202DE9F74F50
:10969000824617461E468846FEF7F4FD9AF8E820F3
:1096A000D6F880B0022A00F0E180DAF8E410411A1E
:1096B000594594BF0021012198F8E820022A0D465F
:1096C00000F0D680D8F8E420A0EB0209D94594BF79
:1096D0004FF000094FF001093A69831A0420019301
:1096E000FFF7ACFF49460920FFF7A8FF019B5B4548
:1096F00096BF397B012181F001010B20FFF79EFF0E
:10970000019B5B4596BF797B012181F001010C2013
:109710004C46FFF793FF002D40F0AD800AF1950015
:109720002A462946A946AB4610F8013F23B3C2F3A7
:10973000C403334402F0070C93F8843023FA0CF38B
:10974000DB0719D53AF81230B6F844C09C4588BFFB
:109750004BF0010BB6F846C09C4588BF49F00109A3
:10976000B6F84AC09C4538BF41F00101B6F848C080
:109770009C4538BF45F0010501324B2AD4D1002069
:10978000FFF75CFF29460220FFF758FF59460120EA
:10979000FFF754FF49460320FFF750FF002C71D11B
:1097A000224615460124914692469346114608F1F9
:1097B0009600C2F3C403334402F0070C93F88E30D2
:1097C00023FA0CF3DB0725D5835C002B58D038F93E
:1097D000123013F5004F53D0B6F956C09C45D8BF90
:1097E00041F00101B6F95AC09C45D8BF4BF0010BBE
:1097F000B6F95CC09C45D8BF4AF0010AB6F95EC014
:109800009C45C8BF49F00109B6F960C09C45C8BF76
:1098100045F0010501324B2ACBD10620FFF70EFFA0
:1098200059460720FFF70AFF51460820FFF706FFB9
:1098300049461720FFF702FF29461820FFF7FEFED2
:1098400084F001010A20FFF7F9FEB97B41B1BB6842
:10985000716E002BB8BF5B4299422CBF00210121E1
:10986000142003B0BDE8F04FFFF7E8BE012123E765
:109870004FF0010930E700252946A946AB467EE7AF
:109880000024C7E700242546A146A246A346214658
:10989000C3E70000A0B9144A1378022B0AD9134A6F
:1098A000136843F400431360114A136843F4004300
:1098B000136070470133DBB2032B1370EFD0704796
:1098C0000C4A1378022B09D9084A136843F48033F1
:1098D0001360074A136843F48033E9E70133DBB2CE
:1098E000032B1370EBD1EFE7D9040020E80400202C
:1098F000E0040020D8040020084A10B5D2E9003165
:1099000030B9074C23F400432070C2E9003110BD88
:1099100004480024047023F48033F6E7E8040020B0
:10992000D9040020D8040020054A136843F400330A
:109930001360044A136843F400331360704700BF98
:10994000E8040020E0040020024A136823F40033F6
:1099500013607047E8040020014BD3E90001704711
:10996000E8040020014BD3E900017047E004002027
:1099700070B5094B094CD3E90023D4E9006526EA08
:10998000020225EA03031040194026EA000625EAF0
:109990000105C4E9006570BDE8040020E004002072
:1099A0000122A0F12003C0F1200122FA01F102FA04
:1099B00003F30B43084910B58240D1E9004014433A
:1099C0001843C1E900400549D1E900401443184358
:1099D000C1E9004010BD00BFE8040020E004002001
:1099E00070B512F48804034603D0BDE87040FEF75A
:1099F000CBBC007828B11449114021430CBF012091
:109A000000205E7826B1114E1640B6FA86F6760929
:109A10009D7825B10E4D1540B5FA85F56D09DC78B8
:109A200024B10B4C1440B4FA84F46409FEF758FCDA
:109A30003046FEF76BFC2846FEF77EFC2046BDE86C
:109A40007040FEF78DBC00BF33FF5F00B3DF5F00E7
:109A5000718FDF00FEF798BCFEF7ACBC054A00230F
:109A60001370054A1370054A1370054A1370054AAE
:109A700013607047F7040020F6040020F50400206E
:109A8000F4040020F00400202DE9F8430A9E00238E
:109A90003360424B1B78DDE90859174643B1FFF7A5
:109AA000D9FF3F4B3F4A1A653F4B404ADA60FEE719
:109AB00015F4880F3E4C03D005232370BDE8F883CE
:109AC000FFF7C4FB23788046052BF7D8DFE803F0C7
:109AD000250319485461374B1B7843B1364B2B4053
:109AE0002BB9FEF7CFFB354B18600223E5E7344B6B
:109AF0001B78002BE2D0334B2B40002BDED104230C
:109B0000DBE7FEF7BFFB2D4AD8F86E301268801AEB
:109B1000834204D80D20FFF743FF0123CDE7264BF6
:109B20002B40002BF9D17B7BA3B13B7B93B13968F0
:109B300000290FDD7A68B8F872308A1A002AB8BF97
:109B400052424B434FF47A71B3FBF1F39A4201DC7A
:109B50000323B2E72378022BB0D101233370ADE7A2
:109B6000144B1B78002BD8D0134B2B40002BD4D197
:109B7000012333707370A1E7114B1B78002BCCD0FD
:109B8000104B2B40002BC8D101233370B370F370FE
:109B900094E755EA0909C0D090E700BFF40400201B
:109BA0000028004007B007B000ED00E00400FA050F
:109BB000F7040020F5040020B3DF5F00F00400206C
:109BC000F6040020718FDF00014B1878704700BF4A
:109BD000F7040020014B01221A707047F4040020A2
:109BE00005210020FFF767B82DE9F04385B09DF807
:109BF00030300D9C03F0FD03012B06D1494B13407F
:109C00001BB990F8E820022A07D1FFF7E9FF464B7D
:109C100000221A7005B0BDE8F0834FF6FF7100F125
:109C20009605C3F3C402224403F0070692F8842089
:109C3000F240D60706D5EA5C22B130F813209142F3
:109C400028BF114601334B2BEBD14FF6FF739942DE
:109C5000DBD00023CDE90133ADF80C30984600F19C
:109C600096074FF00F0C4FF0010EC3F3C4052544C7
:109C700003F0070695F89850F540ED07DAB223D5C2
:109C8000FE5C0EB330F81390B4F84C504D451BD227
:109C9000B4F84E500D44ADB24D4515D2B2FBFCF8B0
:109CA0000DF110095FFA88F509EB4505C8EB0818B6
:109CB000A2EB0802D2B235F80C8C0EFA02F242EA9C
:109CC000080225F80C2CB04601334B2BCDD1B8F14E
:109CD000000F9AD0FEF7D6FA1349144A0D78144BA8
:109CE0004DB90124147018600C7001AA05210020E0
:109CF000FEF791FF8EE719681578411A55B1646F28
:109D00008C42F2D800211170186005210020FEF766
:109D1000D2FF7FE7A46F8C42F7D801211170186041
:109D2000E3E700BFB3DF7F00F80400200005002058
:109D3000FC04002010B5094C024601444FF6FF70A8
:109D4000914200D110BD12F8013B80EA0323180AAA
:109D500034F8100080EA032398B2F1E71CAB000846
:109D6000F8B51D469DF81830174C002B0F460CBF58
:109D7000012303231146AA2205F10A062270A070CE
:109D80005522000A23710023B6B26270E070677139
:109D9000A571E37129B125B12A4604F1080000F04C
:109DA000AFFE05F1080189B20748FFF7C3FF34444D
:109DB000030A04F8010C04F8023C31460248BDE8ED
:109DC000F840FEF73FBB00BF010500201FB501238F
:109DD0008DF80F2000930DF10F02FFF7C1FF05B0C2
:109DE00000BD0000024B00221A70A3F80C2270473D
:109DF0000C0700202DE9F047AA4CC0B00027FEF761
:109E000033FB10B940B0BDE8F087FEF735FB23788F
:109E10000A2BF4D8DFE803F0060F1C2736414C5715
:109E20006E7F8800AA28EAD10123A4F80C324AF6F2
:109E300001232380E3E7552840F0A381B4F80C32D6
:109E40005A1C2344A4F80C22587002232370D6E72E
:109E5000B4F80C32A4F80E025A1C2344A4F80C22C5
:109E600058700323F2E7B4F80E3243EA0023A4F853
:109E70000E32B4F80C325A1C2344A4F80C22587049
:109E80000423E3E7B4F80C3284F810025A1C23448C
:109E9000A4F80C2258700523D8E7B4F80C3284F8E3
:109EA00011025A1C2344A4F80C2258700623CDE753
:109EB000B4F80C32A4F812025A1C2344A4F80C2261
:109EC00058700723C2E7B4F81232B4F80C2243EA00
:109ED00000239BB2511C2244B3F5007FA4F8123238
:109EE000A4F80C12507000F24C81002B0CBF092317
:109EF0000823ABE7B4F80C325A1C234492B25870D2
:109F0000B4F81232A4F80C2208339BB29A42FFF440
:109F100076AF09239AE7B4F80C325A1C2344A4F80C
:109F20000C2258700A2391E7B4F80C12631801F15F
:109F3000010801391FFA88F8587089B25A48A4F804
:109F40000C82FFF7F7FE04EB0803B4F80E5213F887
:109F5000012C14F8083094F8116243EA022383427A
:109F600040F0808440F20A329542B4F8123244D86C
:109F7000B5F5407F0AD8B5F5837F2FD2B5F5807F40
:109F800022D8012D64D0012200F058BC6FF440703B
:109F90002B184FF00008092BF5D801A252F823F036
:109FA0003DA40008879F0008E7A400085BA50008FF
:109FB00081A50008DDA500089FA6000861A700088C
:109FC000C5A700081FA80008A5F58175032D6FD847
:109FD000DFE815F0D9002801490181016FF4007113
:109FE0006A18032ACFD8A5F20225022D00F2B1810A
:109FF000DFE815F0B901E2010A0240F2024295429F
:10A0000000F019841ED840F201439D42BBD100F0FC
:10A010004BFC264A4FF00123CDE9162300228DF890
:10A02000602003788DF86130C36DB0F85C10ADF836
:10A030006210190C1B0E8DF865308DF864100092BB
:10A040000E232BE0A5F20343032B9CD80A22F5E351
:10A05000192200210DF1590000F026FD4B238DF847
:10A06000633041F24B73ADF8643009238DF86930E9
:10A07000F0238DF86B3002238DF86C3020238DF89F
:10A080006F30002300938DF858508DF85B508DF899
:10A090005D508DF85F508DF861501A2316AA314635
:10A0A00028466CE00C0700200D070020010000018D
:10A0B000FFF7C0FA80462422002116A800F0F4FC25
:10A0C000D8F800301693D8F804301793D8F8083031
:10A0D0001893FFF779FD00258DF864008DF8655021
:10A0E000FFF73AFC0DF1650E2B46C3F1200CA3F1EE
:10A0F000200520FA03F201FA0CFC42EA0C0221FAD4
:10A1000005F508332A43402B0EF8012FEDD1FFF758
:10A1100029FC0DF16D0E0023C3F1200CA3F12005E5
:10A1200020FA03F201FA0CFC42EA0C0221FA05F5CE
:10A1300008332A43402B0EF8012FEDD1FFF78CFC9A
:10A140008DF87600FEF79EF8030A8DF877008DF8FB
:10A150007830030C000E8DF87A008DF8793098F87D
:10A160000D3098F80C20DB0043EA82038DF87B3039
:10A170000023009316AA2423314640F20110FFF772
:10A18000EFFD27703BE68BB3637A03F00105FFF721
:10A1900049FA002D80464FF000014FF0A5020DF165
:10A1A00059000CBF4FF09C094FF0A60900F07CFC51
:10A1B0004B238DF85830A8F1020116AB08F194003A
:10A1C00031F8022F9A7088424FEA1222DA7003F1B6
:10A1D0000203F5D1D8F8E4303C934DB90023009345
:10A1E00016AA4B4631464FF48170C8E71D46CEE7AC
:10A1F00008F195080022012018F8013F6BB1D10841
:10A2000040AB643953FA81F102F0070311F8A85CFE
:10A2100000FA03F32B4301F8A83C0132D2B24B2AD7
:10A22000EAD1DBE7FFF702FA0021054697220DF19C
:10A23000590000F039FC4B238DF85830A91E16AB9D
:10A24000943531F9022F9A70A9424FEA1222DA703E
:10A2500003F10203F5D10023009316AA9823314697
:10A2600040F203108BE7FFF777FB80468946FFF744
:10A2700079FB0DF1580E0023C3F1200CA3F120054A
:10A2800028FA03F209FA0CFC42EA0C0229FA05F555
:10A2900008332A43402B0EF8012BEDD10DF15F0E50
:10A2A0000023C3F1200CA3F1200520FA03F201FAE8
:10A2B0000CFC42EA0C0221FA05F508332A43402B34
:10A2C0000EF8012FEDD10023009316AA102331467A
:10A2D0004FF4827053E7072B37D90023DFF8F0E201
:10A2E000184619461EF8015FA3F12002C3F1200CA5
:10A2F00005FA02F225FA0CFC9D40083342EA0C02F2
:10A30000402B40EA050041EA0201EBD1FFF730FBA8
:10A3100016AD0023C3F1200EA3F1200C20FA03F2A6
:10A3200001FA0EFE42EA0E0221FA0CFC083342EA60
:10A330000C02402B05F8012BECD10023009316AA48
:10A340000823314640F2051019E74FF0FF3001466F
:10A35000DCE7FEF77BFF0023024600933146E22351
:10A3600040F201200BE7E22B06D00222314640F2F8
:10A370000220FFF72BFD04E7964B97481A889B783D
:10A38000ADF858200CA98DF85A30FEF711FEBDF833
:10A3900030308DF8593000384FEA132318BF0120B0
:10A3A0008DF85A3000238DF85800009316AA032325
:10A3B000314640F20220E2E6E22B04D0022231468E
:10A3C00040F20320D5E78448FEF744FF031E18BF80
:10A3D00001238DF85830FF238DF859308DF85A300D
:10A3E00050B17D480CA9FEF7E3FDBDF830308DF883
:10A3F00059301B0A8DF85A300023009316AA032304
:10A40000314640F20320BAE6E22B04D00222314664
:10A410004FF40170ADE77048FEF72EFF002814BF1F
:10A42000052300238DF8583014BF01230023009327
:10A4300016AA012331464FF40170A0E600F034FA69
:10A4400005461C22002116A800F02EFB2B788DF863
:10A4500058306B688DF859301A0A8DF85A201A0C4A
:10A460001B0E8DF85B208DF85C30AB688DF85D308D
:10A470001A0A8DF85E201A0C1B0E8DF85F208DF8DD
:10A480006030EB688DF861301A0A8DF86220294639
:10A490001A0C1B0E8DF863208DF8643011F8103FF4
:10A4A0008DF865304FF0010C002311F8012F62B1D7
:10A4B00040A800EBD30003F0070210F89AEC0CFA66
:10A4C00002F242EA0E0200F89A2C0133DBB24B2B67
:10A4D000EBD1EB6D1C930023009316AA1C2331468D
:10A4E00040F201304BE616AA05210020FEF7EEFBF4
:10A4F0000546B0FA80F016A9400900F0C1F9002322
:10A500009D42CDF83130CDF83530ADF8393018BF37
:10A5100001238DF8303007D0002300930CAA0B23C1
:10A52000314640F203302AE616AB012013F8012B26
:10A5300072B1EA0840A9013251FA82F205F007012E
:10A5400012F8D0CC00FA01F141EA0C0102F8D01C5B
:10A550000135EDB24B2DE9D1DEE70CA8FDF730FF58
:10A560009DF838300C9A16928DF860300D9A17923B
:10A570000023009316AA092331464FF44170FEE5EB
:10A5800016A8FDF71DFFFFF767FA9DF85E309DF8EE
:10A590005F208DF830005B00920002F0040203F0AF
:10A5A000020313439DF85D2002F0010213439DF85E
:10A5B0006020D20002F0080213438DF831300023EE
:10A5C00000930CAA0223314640F20530D7E500BFC4
:10A5D000140700201CAD00081507002004AB02AAD8
:10A5E00005210020FEF76AFC2922002182460DF198
:10A5F0005B0000F059FA01238DF8583005238DF8DF
:10A600005A308DF859A0FDF73DFE0DF1080804AD54
:10A61000209016AB2A4641464FF0000911F8010B75
:10A62000D87018B1106858609088188109F1010934
:10A63000B9F1050F03F1070302F10602EED116A8E6
:10A6400000F036F9232200210DF1320000F02CFA3F
:10A65000BAF1000A18BF4FF0010A8DF830A08DF84A
:10A6600031900CAB0022012018F8011BA9B1296818
:10A67000C3F80310A9889870A3F807100132052ABF
:10A6800003F1070305F10605EED1002300930CAAA0
:10A690002523314640F2063071E59970EEE704ABB0
:10A6A00002AA05210120FEF709FC29220021824689
:10A6B0000DF15B0000F0F8F901238DF85830052307
:10A6C0008DF85A308DF859A0FDF7DCFD0DF1080822
:10A6D00004AD209016AB2A4641464FF0000911F810
:10A6E000010BD87018B1106858609088188109F172
:10A6F0000109B9F1050F03F1070302F10602EED1DA
:10A7000016A800F0E3F8232200210DF1320000F03A
:10A71000CBF9BAF1000A18BF4FF0010A8DF830A04A
:10A720008DF831900CAB0022012018F8011B79B98B
:10A7300099700132052A03F1070305F10605F4D1EA
:10A74000002300930CAA2523314640F2073016E57A
:10A750002968C3F80310A9889870A3F80710E8E7E0
:10A76000022304AA00214020ADF81080FDF727FF46
:10A77000012305468DF858308DF85900F8B9BDF819
:10A7800010305BBAADF85A30FDF77CFD179016A873
:10A7900000F0AAF89DF810308DF83130003D9DF89A
:10A7A00011308DF8323018BF0125002300938DF849
:10A7B000305003230CAA31464FF44270DFE44FF6C9
:10A7C000FF73DFE704A8ADF81080FDF754FF012305
:10A7D00005468DF858308DF85900F0B9BDF81030A5
:10A7E000ADF85A30FDF74EFD179016A800F084F82A
:10A7F000BDF810308DF83130003D4FEA132318BFFB
:10A8000001258DF83230002300938DF8305003235A
:10A810000CAA314640F20930B1E40023E0E7FFF72B
:10A82000DFF98DF85880CDF80080012316AA314653
:10A8300040F20A30A3E4032B03D802223146284613
:10A8400097E5D4F80920084B9A4201D00B22F5E78E
:10A85000002300931A4631462846FFF781FAFFF796
:10A86000B9F98EE40322E9E707B007B0034AD368D9
:10A87000591C1CBF0133D360704700BF2009002062
:10A8800008B5084B4B22187420B103F1110000F0F9
:10A8900037F908BD014603F11100BDE8084000F09A
:10A8A00003B900BF2009002000487047200900209C
:10A8B00030B504460FCC044D0FC50FCC0FC594E83E
:10A8C000070085E8070030BD8009002030B5044648
:10A8D0000FCC044D0FC50FCC0FC594E8070085E8D9
:10A8E000070030BDAC09002003C8024B83E8030019
:10A8F000704700BFD809002003C8024B83E803005B
:10A90000704700BFE009002010B5FEF733FD0521B8
:10A9100004460020FEF7B9F805210120FEF7B5F83E
:10A92000FFF79CF8FFF75EFA14B11320FFF738F831
:10A930000C4B45F255521A6003225A6040F2E24233
:10A940009A604CF6CC421A60FDF79CFC064B1860EE
:10A95000FDF798FC054B1860FDF794FC044B18605C
:10A9600010BD00BF00300040F0090020EC090020BD
:10A97000E80900202DE9F04FDFF8E480DFF8E490EB
:10A9800089B0FDF77FFC384A4AF6AA231360D8F84D
:10A990000030C31A632B044608D9C8F80000FEF73C
:10A9A00025FD022802D10020FEF774FFD9F80030FF
:10A9B000E31AB3F5FA7F03D3C9F80040FEF758FD58
:10A9C0002A4A1368E31A632B02D91460FEF7C8FD04
:10A9D000FEF73CFC0646FEF725FE0446FEF726FE83
:10A9E0000546FEF727FE3346024629462046FEF777
:10A9F0004DFEFEF7B1FF04460D46FEF7B3FF14F41B
:10AA0000880FCDE9040102D0FFF724F8FEE7FEF736
:10AA100009FE8246FEF70AFE8346FEF70BFE07AFED
:10AA200059468DE8B00002465046FFF72DF8DDE9A3
:10AA300004233846CDE9002322462B46FEF7D0FFFB
:10AA4000FEF7F0FD0746FFF7BFF82246CDE9000606
:10AA50002B463846FFF7C8F8FFF7CCF991E700BF5F
:10AA6000F0090020EC09002000300040E809002037
:10AA700008B5FDF717FCFDF7B9FBFDF7C7FCFDF7BF
:10AA800001FDFDF785FDFDF79CFDFDF713FE054873
:10AA90002821FDF7D7FCFFF737FFFFF76BFF0020FA
:10AAA00008BD00BF0CAE000802440346934200D12B
:10AAB000704703F8011BF9E770B50D4B0D4C0026EC
:10AAC0001D1BB6EBA50F09D100F0B6F90A4C0B4BD4
:10AAD00000261D1BB6EBA50F05D170BD54F8043B35
:10AAE00098470136EDE754F8043B98470136F1E703
:10AAF0000000000000000000000000000000000056
:10AB00000A44914200F1FF3300D1704710B511F8AB
:10AB1000014B03F8014F9142F9D110BD0000211003
:10AB2000422063308440A550C660E77008812991B7
:10AB30004AA16BB18CC1ADD1CEE1EFF1311210025F
:10AB400073325222B5529442F772D6623993188307
:10AB50007BB35AA3BDD39CC3FFF3DEE3622443342B
:10AB600020040114E664C774A44485546AA54BB557
:10AB700028850995EEE5CFF5ACC58DD553367226FF
:10AB800011163006D776F6669556B4465BB77AA7A7
:10AB900019973887DFF7FEE79DD7BCC7C448E5584B
:10ABA0008668A7784008611802282338CCC9EDD9F7
:10ABB0008EE9AFF9488969990AA92BB9F55AD44A9F
:10ABC000B77A966A711A500A333A122AFDDBDCCB47
:10ABD000BFFB9EEB799B588B3BBB1AABA66C877C6B
:10ABE000E44CC55C222C033C600C411CAEED8FFD97
:10ABF000ECCDCDDD2AAD0BBD688D499D977EB66E3F
:10AC0000D55EF44E133E322E511E700E9FFFBEEFE6
:10AC1000DDDFFCCF1BBF3AAF599F788F8891A981A8
:10AC2000CAB1EBA10CD12DC14EF16FE18010A10092
:10AC3000C230E3200450254046706760B983989382
:10AC4000FBA3DAB33DC31CD37FE35EF3B1029012E2
:10AC5000F322D2323542145277625672EAB5CBA54E
:10AC6000A89589856EF54FE52CD50DC5E234C32432
:10AC7000A01481046674476424540544DBA7FAB722
:10AC80009987B8975FE77EF71DC73CD7D326F23682
:10AC90009106B01657667676154634564CD96DC96E
:10ACA0000EF92FE9C899E9898AB9ABA944586548D2
:10ACB00006782768C018E1088238A3287DCB5CDBC2
:10ACC0003FEB1EFBF98BD89BBBAB9ABB754A545A22
:10ACD000376A167AF10AD01AB32A923A2EFD0FED8E
:10ACE0006CDD4DCDAABD8BADE89DC98D267C076C72
:10ACF000645C454CA23C832CE01CC10C1FEF3EFF62
:10AD00005DCF7CDF9BAFBABFD98FF89F176E367EC1
:10AD1000554E745E932EB23ED10EF01E00FFFF0022
:10AD20000400060008000A0009000100CCBB010075
:10AD3000E20001000100000000000000000000002F
:10AD40000000000000000000000000000000000003
:10AD500000000000000000000000000000000000F3
:10AD6000000000000000000000004B4B0000BE0A85
:10AD7000B80B36106810D80E0A00740E000090014F
:10AD8000C20126025802BC02000038FF0000A08663
:10AD90000100803801005A001027000005008813C8
:10ADA0000000E803000005000000F4010000FFFFC0
:10ADB000FFFFFFFFFFFFFF07FFFFFFFFFFFFFFFF9B
:10ADC000FF07FFFFFFFFFFFFFFFFFF07E803000094
:10ADD00000000000E8030000E8030000000000009D
:10ADE000000500000000000000000000000000005E
:10ADF0000000000000000000000000000000000053
:10AE00000000000000000000000000000D0A2D2DD1
:10AE10002D20424D532076302E312E302048575F62
:10AE200050524F46494C453D307830303031202D1E
:10AE30002D2D0D0A00000000F8B500BFF8BC08BCBD
:10AE40009E467047F8B500BFF8BC08BC9E467047E8
:0400000508008189E5
:00000001FF
