:020000040800F2
:108000001819002089810008D9810008D981000849
:10801000D9810008D9810008D9810008000000003A
:10802000000000000000000000000000D9810008EE
:10803000D981000800000000D9810008DD81000816
:10804000D9810008D9810008D9810008D9810008A8
:10805000D9810008D9810008D9810008D981000898
:10806000D9810008D9810008D9810008D981000888
:10807000D9810008D9810008D9810008D981000878
:10808000D9810008D9810008D9810008D981000868
:10809000D9810008D9810008D9810008D981000858
:1080A000D9810008D9810008D9810008D981000848
:1080B000D9810008D9810008D9810008D981000838
:1080C000D9810008D9810008D9810008D981000828
:1080D000D9810008D9810008D9810008D981000818
:1080E000D9810008D9810008D9810008D981000808
:1080F000D9810008D9810008D9810008D9810008F8
:10810000000000000000000000000000D98100080D
:10811000D9810008D9810008D9810008D9810008D7
:10812000D9810008D9810008D9810008D9810008C7
:10813000D9810008D981000800000000000000007B
:10814000D9810008D9810008D98100080000000009
:10815000000000000000000000000000000000001F
:108160000000000000000000D9810008D98100084B
:10817000D98100080000000000000000000000009D
:1081800000000000D9810008DFF834D000F025F8A5
:108190000C480D490D4A002302E0D458C450043362
:1081A000C4188C42F9D30A4A0A4C002301E0136038
:1081B0000432A242FBD301F0E7FD01F0C1FDFEE76E
:1081C00018190020000000200000002028A100084D
:1081D0000000002014090020FEE77047024A1368DF
:1081E00001331360704700BF00000020214B1A6864
:1081F00042F480321A601A689103FCD51E490A685D
:1082000022F0070242F002020A6059681B4A0A4043
:1082100042F4E81242F480625A601A6842F08072B6
:108220001A601A689201FCD55A6822F0030242F0E3
:1082300002025A605A6802F00C02082AFAD15A69FE
:1082400042F49C025A615A6942F080525A61DA69DA
:1082500042F0925242F40032DA619A6942F480525A
:108260009A614FF0E023064A5A6100229A61072280
:108270001A61704700100240002002400FC002FC4B
:108280003F190100014B1868704700BF0000002033
:10829000034A116813685B1A8342FBD3704700BF1F
:1082A000000000200C4B4FF000629A614FF080629A
:1082B0009A614FF480329A614FF480229A614FF4B0
:1082C00000329A614FF400229A6120229A61034B96
:1082D00000221A70704700BF00040048040000200C
:1082E000084A0949137830B14FF40060886143F0BF
:1082F0000103137070474FF00060886103F0FE03C4
:10830000F7E700BF0400002000040048084A0949BC
:10831000137830B14FF48060886143F0020313702A
:1083200070474FF08060886103F0FD03F7E700BFFE
:108330000400002000040048074A0849137828B1C7
:108340000120886143F00403137070474FF48030BC
:10835000886103F0FB03F7E70400002000040048F5
:10836000074A0849137828B10420886143F00803BC
:10837000137070474FF48020886103F0F703F7E72C
:108380000400002000040048084B4FF000629A618E
:108390004FF080629A614FF480329A614FF48022EC
:1083A0009A61034B00221A70704700BF0004004816
:1083B00004000020014B1878704700BF0400002023
:1083C0004FF090431A6822F0F0021A601A6842F0E7
:1083D000A0021A601A6A22F47F421A621A6A42F4F0
:1083E000EE421A62034B4FF49C72DA600D221A605F
:1083F000704700BF00440040074B0144884203D14E
:10840000DA695206FCD57047DA691206FCD510F815
:10841000012B1A85F2E700BF00440040024BD869E7
:10842000C0F34010704700BF00440040014B988CDF
:10843000C0B27047004400404FF090431A6822F4E5
:108440007C421A601A6842F428421A601A6AC2F31F
:1084500013021A621A6A42F0AA4242F4A0021A6295
:108460001A6822F440721A601A6842F480721A6024
:1084700010229A61D3F8002422F04072C3F800243D
:10848000D3F8002442F08072C3F800244FF48052E5
:10849000C3F81824074B40F21F321A604FF4E06211
:1084A0005A601A6842F040021A60034B00221A70A8
:1084B000704700BF003001400500002040B94FF078
:1084C00090434FF480129A61034B01221A70704757
:1084D000024B4FF08052F6E70500002000040048F0
:1084E00038B94FF0904310229A61044B00221A7061
:1084F0007047034B4FF48052F6E700BF05000020A1
:10850000000400480C4B30B50024A5B2AA4203D8A1
:108510009A681206FCD430BD9D68AD07FCD548B101
:10852000055D1D739D68ED07FCD51D7B01B10D55E3
:108530000134EAE7FF25F4E7003001400A46002154
:10854000FFF7E0BF4FF090431A6822F470121A60F0
:108550001A6842F420121A605A6842F4C0625A60E3
:108560005A6A22F47F625A625A6A42F488625A62F4
:1085700070474FF09042136843F00C03136070474C
:108580004FF090431A6822F070721A601A6842F035
:1085900020721A605A6A22F47F225A625A6A42F49E
:1085A00019225A6270470000074B186910F08000CA
:1085B00009D0064A5A6002F188325A601869C0F33D
:1085C000C010C000C0B270470020024023016745C0
:1085D000024A136943F08003136170470020024090
:1085E0000548064BDA68D20700D518B9B0FA80F012
:1085F000400970470138F5E7A086010000200240DD
:1086000038B5194CA042014602D0184B984227D1E8
:10861000FFF7CAFF30BB154D154BA14218BF1D46D1
:10862000144CFFF7DDFF18B1FFF7D2FF012038BD72
:10863000236943F0020323616161236943F040032E
:108640002361FFF7CDFF236923F002032361002894
:10865000EAD101F50061A942E3D1FFF7B9FFE6E7EE
:108660000520E4E70820E2E7007003080090030813
:1086700000B0030800200240224B98422DE9F0414F
:10868000054690463CD303F500539842024428BF68
:1086900003F500539A4233D840EA080616F0010663
:1086A0002ED1FFF781FF044640BB174A136943F000
:1086B000010313610131464503D2FFF791FF50B129
:1086C0000124114A136923F001031361FFF780FFAE
:1086D0002046BDE8F0810B7811F8017C47EA0327BA
:1086E0007753FFF77DFF0028EAD1735B9BB29F426F
:1086F00002D102310236DEE70824E2E70824E7E788
:108700000524E5E700700308002002400B460146FF
:10871000184601F05DBB0000F0B5164D2A78BAB9D5
:10872000154E1346082403F480475B001FB183F401
:108730008B4383F01903013CF5D1803292B2C3F32D
:108740000E03B2F5004F26F8023BEAD101232B704D
:10875000094C01441023884201D15800F0BD10F8A3
:10876000012B82EAD31234F8122082EA0323C3F3E6
:108770000E03F0E7060000200800002013B50446B1
:10878000FFF79CFEFF2301210DF107008DF8073054
:10879000FFF7D4FE2046FFF7A3FE0120FFF778FD88
:1087A00002B010BD13B549BA0446ADF8041001A8D3
:1087B0000221FFF7B1FF40BAADF806002046FFF7EF
:1087C000DDFF2046FFF77AFE04210DEB0100FFF7E5
:1087D000B5FE2046FFF784FE002002B010BD73B541
:1087E00049BA0546ADF8041001A802211E461446F8
:1087F000FFF792FF40BAADF806002846FFF7BEFF2C
:108800002846FFF75BFE04210DEB0100FFF796FE03
:10881000062303FB0646B44205D12846FFF760FE57
:10882000002002B070BD06212046FFF775FF40BA58
:10883000ADF8000006212046FFF780FE02216846C1
:10884000FFF77CFE0634E6E72DE9F04F8DB049BA1C
:108850000446ADF8041001A802211F469146DDF838
:108860005880FFF759FF40BAADF806002046FFF7E1
:1088700085FF2046FFF722FE04210DEB0100FFF7E4
:108880005DFEFA0002A90020FFF73CFE2046FFF73C
:1088900027FE002502ACAA464FF0060BBD4206D1CA
:1088A0004FEA4A0000F0FE000DB0BDE8F08FE68808
:1088B000062176BA2046B6B2FFF72EFFB8F1000FB8
:1088C00004D0321A5342534108F805300BFB05F32C
:1088D00009EB0302864218BF4AF0010A206849F8F2
:1088E0000300A388938001350834D7E710B5FFF75C
:1088F000C9FC0446FFF7C6FC001B092801D901206A
:1089000010BDFFF7BFFC001B0228F3D90020F7E7DA
:10891000F0B589B005460C46FFF730FF1E22002156
:10892000684601F029FA00216A46F8260846FF2722
:108930004FF00F0CCBB29C4207D823466A46012168
:108940002846FFF74CFF09B0F0BD02F8066B013175
:1089500002F8050C02F8040C02F8030C02F8027C81
:1089600002F801CCE6E700002DE9F04F91B08A460D
:108970004FF45871059015461F46FFF713FF044644
:1089800040BBFFF7B3FF044620BBB84607EB0A0B1A
:108990003B4601225B4521D1214B039305F11E0388
:1089A00004934FF00A09039806AE009630F8021BB4
:1089B0000390534608AA0598FFF746FF08AA2B46DE
:1089C0000021C8B282450CD8049B06359D42EAD1ED
:1089D000D8451ED1204611B0BDE8F08F03F8012B19
:1089E000D8E716F8010B00B978541088B0FBF9F0FD
:1089F00001311880063232F8040CB0FBF9F01E3356
:108A000023F81C0C32F8020CB0FBF9F023F81A0C16
:108A1000D7E718F8013B002BDAD10224DAE700BFD0
:108A2000F89F00082DE9F04F93B088464FF4AC61F1
:108A3000069007921E46FFF7B5FE044620BBFFF7DF
:108A400055FF044600BB374606EB080933460122B2
:108A50004B451DD1DFF894A000250DF1200BCDF87A
:108A600000B043463AF8021B06980AAAFFF7ECFE4C
:108A7000CDF80CB00AA80023D9B288450BD803352D
:108A80000C2DEAD14F452AD1204613B0BDE8F08F16
:108A900003F8012BDCE7039A12F8011B039201B9DA
:108AA000F154079A122101FB03220492421CAC46A6
:108AB00000210592BCF1090F0ED0059A10F811E0C3
:108AC00012F811B0049A01314EEA0B2E032922F854
:108AD0001CE00CF1010CEDD101330630CCE717F8A6
:108AE000013B002BCED10224CEE700BFF09F00084F
:108AF00070B5012888B00D46164617D11E220021F8
:108B0000684601F039F900220621D3B29D4207D808
:108B10002B466A4624210120FFF761FE08B070BD94
:108B200001FB02F301320DF80360EEE70620F5E7E2
:108B300030B5012889B004460D460CD11E22002113
:108B4000684601F019F92B466A4624212046FFF7B2
:108B500046FE09B030BD0620FBE770B50D468CB06F
:108B6000144640BB02AB009304AA0B460221FFF758
:108B70006BFE58B9224604A804EB4506B24207D161
:108B80002B4604AA01210020FFF729FE0CB070BD7E
:108B900032F8023B4179C3F30B0421F00F011B0AA9
:108BA00041EA142103F070031943063000F8024C27
:108BB00000F8011CE2E70620E8E71FB5002301AA40
:108BC000CDE90133ADF80C30FFF7C7FF05B000BDAC
:108BD00030B5BBB00146E22201A801F0F9F800234C
:108BE000ADF81230ADF8143001AA4FF0FF3012F892
:108BF000011B48400821074C40F300052C40013977
:108C000084EA5000F7D101339BB2E22BEFD1C0438D
:108C10003BB030BD2083B8ED0268934B9A4270B5EB
:108C200005460C4604D009B100232380072040E10B
:108C30008388012B03D00029F8D00423F5E7C388EB
:108C4000E22B03D00029F1D00623EEE70389012BA4
:108C500003D00029EAD00823E7E7D0F80A3001332F
:108C600003D10029E2D00A23DFE7D0F80E60FFF736
:108C7000AFFF864203D0002CD8D00E23D5E705F1F4
:108C8000110305F13F0213F8011F19B1002CCDD0DB
:108C90001223CAE79342F6D195F840304B2B03D00C
:108CA000002CC3D04023C0E795F841304B2B03D0B4
:108CB000002CBBD04123B8E7B5F842301BB1002CE3
:108CC000B4D04223B1E7B5F84630B5F844209A4213
:108CD00003D3002CAAD04423A7E7B5F84C20934235
:108CE00003D3002CA2D046239FE7B5F848309A4220
:108CF00003D3002C9AD04C2397E7B5F84A10994239
:108D000003D8002C92D048238FE7B5F84E109B1A59
:108D1000994203DB002C89D04E2386E7B5F9563003
:108D2000B5F954209A4204DB002C3FF47FAF542362
:108D30007BE7B5F95C20934204DD002C3FF476AF6D
:108D4000562372E7B5F95A30B5F95810994204DB49
:108D5000002C3FF46BAF582367E79A4204DA002CEB
:108D60003FF464AF5A2360E7B5F96020B5F95E308F
:108D70009A4204DD002C3FF459AF602355E76B6E37
:108D8000AA6E9A4204D9002C3FF450AF68234CE7F6
:108D900023B9002C3FF44AAF642346E7B5F86C30A2
:108DA000323B312B04D9002C3FF440AF6C233CE71D
:108DB000D5F86E3023B9002C3FF438AF6E2334E77A
:108DC000B5F87230013B132B04D9002C3FF42EAFC1
:108DD00072232AE76B6F23B9002C3FF427AF74236B
:108DE00023E7AB6F23B9002C3FF420AF78231CE7B7
:108DF000B5F87C3023B9002C3FF418AF7C2314E77E
:108E0000D5F88030632B04D8002C3FF40FAF8023BB
:108E10000BE795F88D30072B04D9002C3FF406AFF3
:108E2000842302E795F89730072B04D9002C3FF4F0
:108E3000FDAE8E23F9E695F8A130072B04D9002C5E
:108E40003FF4F4AE9823F0E6D5F8A23023B9002C15
:108E50003FF4ECAEA223E8E6B5F8AA3033B9002C13
:108E60003FF4E4AEAA23E0E60100CCBBB5F8AE3097
:108E700023B9002C3FF4DAAEAE23D6E6B5F8B6300F
:108E8000B3F5006F04D3002C3FF4D0AEB623CCE68C
:108E900005F1B903E13513F8010F20B1002C3FF4BF
:108EA000C5AEBA23C1E6AB42F5D114B14FF6FF739C
:108EB000238070BD004870470802002037B50DF1CF
:108EC00006010546FFF7A8FE044620B90348E22242
:108ED000294600F07DFF204603B030BD0802002087
:108EE000F0B5ADF5677D0DF102010746FFF794FE81
:108EF00000285AD12F48E22202A9FFF707FC2E488A
:108F0000E2223BA9FFF702FC01A902A8FFF784FEB9
:108F10000DF1060106463BA8FFF77EFE002E3DD16F
:108F2000DDF8124030B9DDF8F630A34202D35C1C04
:108F3000204E01E0204E0134E222394674A800F0B0
:108F400047FF002374A8CDF8DA41ADF8DE31ADF863
:108F5000E031FFF73DFECDF8DE013046FFF750FB74
:108F60000446B8B9E22274A93046FFF785FB0446EF
:108F700080B9E222ADA93046FFF7C8FB0DF102012E
:108F8000ADA8FFF749FE044688B90C48E22274A94F
:108F900000F01EFF20460DF5677DF0BDDDF8F640C0
:108FA000002818BF00240134C2E70724F2E7082490
:108FB000F0E700BF007003080090030808020020DB
:108FC00010B505490446E22200F002FF2046FFF7F3
:108FD000FFFDC4F80E0010BD02A0000830B5F5B0CA
:108FE00002AC1948E2222146FFF790FB1748E22223
:108FF0003BA9FFF78BFB0DF106012046FFF70CFEA6
:109000000DF1060105463BA8FFF706FE9DB978B9AC
:10901000D4F80A10DDF8F6303BA8E222994234BFBA
:10902000014621460A4800F0D3FE002075B030BD4D
:10903000E2222146F6E710B9E2223BA9F2E7044812
:10904000FFF7BEFF0720F1E7007003080090030858
:1090500008020020F0B5A9B06B4602AA0521002045
:10906000FFF782FC0446FFF70DF9164BC3F8E40046
:10907000F4B902A91846962200F0AAFE69460346F2
:1090800000F19505204611F8017B2E460F22013A8A
:1090900012F0FF0206F8017FF9D10F30C0B24B2861
:1090A00005F10F05EFD183F8E820204629B0F0BD87
:1090B000022283F8E82000214B2203F1960000F001
:1090C0005BFEF2E7EC030020F0B59BB0FFF7F2FE89
:1090D00040F2FF12054605210120FFF709FD244E4D
:1090E000044648B105210120FFF722FD022386F83E
:1090F000E83020461BB0F0BDB5F87C00FFF7C8F89B
:1091000001AB03AA05210120FFF78CFC05210546D0
:109110000120FFF70DFD0746FFF7B4F8C6F8E4009D
:1091200095B933464FF400420135EDB24B2D23F88B
:10913000022BF9D10F482A46002100F01DFE012321
:1091400086F8E8303C46D4E7022386F8E8304FF44E
:10915000004233460134E4B24B2C23F8022BF9D100
:1091600022460448002100F007FE2C46C1E700BF5C
:10917000000300209603002010B5074C4FF0004379
:10918000C4E900330023A360A381A373FFF77AF837
:109190002061092010BD00BFEC020020004870478C
:1091A000EC0300200048704700030020004870478F
:1091B000EC020020012330B5C0F12002A0F1200410
:1091C00003FA04F423FA02F244EA02050B4A83404C
:1091D000D2E9004059B128431C43C2E90040084A83
:1091E000D2E9000118432943C2E9000130BD24EA55
:1091F000030420EA0500C2E90040F7E7E00400208C
:10920000D80400202DE9F74F81460F461C4616462C
:10921000FFF738F8D7F8E430D9F8E450D4F8808074
:10922000451BA0EB030A33694545A0EB030B00F295
:10923000F08099F8E8108A1E514251411220FFF740
:10924000B9FFD045C0F0E78097F8E8108B1E59426F
:1092500059411320FFF7AEFFD845C0F0DE80337BC5
:10926000002B40F0DC80717B81F0010101F00101F5
:109270001420FFF79FFF99F8E8B0ABF1020CDCF186
:10928000000141EB0C010420FFF794FF97F8E83050
:109290000093A3F1020EDEF1000141EB0E010A2062
:1092A000FFF788FF317B0D2081F00101FFF782FF7E
:1092B000717B0E2081F00101FFF77CFF454500F234
:1092C000B080BBF1020F00F0AC80002309F1950CD7
:1092D0001D469B461A4619461CF8010F20B3C3F3DE
:1092E000C400204403F0070E90F8840020FA0EF02A
:1092F000C00719D539F81300B4F844E0864588BF93
:1093000041F00101B4F846E0864588BF42F0010211
:10931000B4F84AE0864538BF4BF0010BB4F848E09A
:10932000864538BF45F0010501334B2BD4D10020D1
:109330000192FFF73FFF01990120FFF73BFF5946DC
:109340000220FFF737FF29460320FFF733FFD04500
:109350006CD3009B022B69D0002307F1950C1D46AE
:109360009846994619461CF8012F3AB337F913204D
:1093700012F5004F22D0C3F3C400204403F0070EBF
:1093800090F88E0020FA0EF0C00717D5B4F95600F9
:109390009042D8BF41F00101B4F95A009042D8BFC1
:1093A00049F00109B4F95E009042C8BF48F00108D5
:1093B000B4F960009042C8BF45F0010501334B2B62
:1093C000D1D10620FFF7F6FE49460720FFF7F2FE4F
:1093D00041460820FFF7EEFE29460920FFF7EAFE86
:1093E000B57B45B3B568616E002DB8BF6D42A9422B
:1093F0002CBF002101210B20FFF7DCFEA16EA9424A
:109400002CBF002101210C2003B0BDE8F04FFFF775
:10941000D1BE012112E701211BE7012126E700212E
:1094200024E70025AB462A46294680E70025A846C2
:10943000A9462946C5E729460B20FFF7BBFE29466A
:10944000E1E70000014BD3E900017047E004002090
:10945000014BD3E900017047D80400200122A0F19C
:109460002003C0F1200122FA01F102FA03F30B43B9
:10947000084910B58240D1E9004014431843C1E9BE
:1094800000400549D1E9004014431843C1E90040B8
:1094900010BD00BFE0040020D804002070B512F019
:1094A000C174034603D0BDE87040FEF76DBF00787D
:1094B00028B11249114021430CBF012000205E78E1
:1094C00026B10F490A420CBF012600269D7825B11E
:1094D0000C490A420CBF01250025DC78FEF700FF8D
:1094E0003046FEF713FF2C402846FEF725FF04F018
:1094F0000100BDE87040FEF733BF00BFD56F160016
:10950000956E160054251600FEF73EBFFEF752BFBB
:10951000024A00231370024A13707047E9040020C6
:10952000E804002008B5049B002119600E4B1B784D
:10953000DDE9022043B1FFF7E7FF0C4B0C4A1A6547
:109540000C4B0D4ADA60FEE712F0C17F0B4B02D0E4
:1095500005221A7003E0197821B1052900D008BD51
:109560000243FCD10122F4E7E80400200028004077
:1095700007B007B000ED00E00400FA05E9040020A0
:10958000014B1878704700BFE9040020014B01220D
:109590001A707047E804002005210020FFF70DBB7A
:1095A000FFF7FABF10B5094C024601444FF6FF70B1
:1095B000914200D110BD12F8013B80EA0323180A42
:1095C00034F8100080EA032398B2F1E7EC9D00081C
:1095D000F8B51D469DF81830174C002B0F460CBFF0
:1095E000012303231146AA2205F10A062270A07066
:1095F0005522000A23710023B6B26270E0706771D1
:10960000A571E37129B125B12A4604F1080000F0E3
:10961000DFFB05F1080189B20748FFF7C3FF3444B7
:10962000030A04F8010C04F8023C31460248BDE884
:10963000F840FEF7E1BE00BFEA0400201FB5012399
:109640008DF80F2000930DF10F02FFF7C1FF05B059
:1096500000BD0000024B00221A70A3F80C227047D4
:10966000F40600202DE9F043BC4CAFB00027FEF714
:10967000D5FE10B92FB0BDE8F083FEF7D7FE2378F2
:109680000A2BF4D8DFE803F0060F1C2736414C57AD
:109690006E7F8800AA28EAD10123A4F80C324AF68A
:1096A00001232380E3E7552840F0EE80B4F80C3224
:1096B0005A1C2344A4F80C22587002232370D6E7C6
:1096C000B4F80C32A4F80E025A1C2344A4F80C225D
:1096D00058700323F2E7B4F80E3243EA0023A4F8EB
:1096E0000E32B4F80C325A1C2344A4F80C225870E1
:1096F0000423E3E7B4F80C3284F810025A1C234424
:10970000A4F80C2258700523D8E7B4F80C3284F87A
:1097100011025A1C2344A4F80C2258700623CDE7EA
:10972000B4F80C32A4F812025A1C2344A4F80C22F8
:1097300058700723C2E7B4F81232B4F80C2243EA97
:1097400000239BB2511C2244B3F5007FA4F81232CF
:10975000A4F80C12507000F29780002B0CBF092364
:109760000823ABE7B4F80C325A1C234492B2587069
:10977000B4F81232A4F80C2208339BB29A42FFF4D8
:1097800076AF09239AE7B4F80C325A1C2344A4F8A4
:109790000C2258700A2391E7B4F80C12631801F1F7
:1097A000010801391FFA88F8587089B26C48A4F88A
:1097B0000C82FFF7F7FE04EB0803B4F80E5213F81F
:1097C000012C14F8083094F8116243EA0223834212
:1097D00040F0F981B5F5017FB4F812321ED8B5F525
:1097E000007F08D8012D24D06FF48072AA18032AB4
:1097F0000BD901221AE0A5F20225022D00F25B81AD
:10980000DFE815F063018D01B601A5F58175022D24
:109810003CD8DFE815F0A700F600170140F202423D
:109820009542E6D1032B00F2BD8102223146284643
:1098300051E1192200210DF1110000F09DFA4B2396
:109840008DF81B3041F24B73ADF81C3009238DF8B5
:109850002130F0238DF8233002238DF8243020238B
:109860008DF82730002300938DF810508DF8135099
:109870008DF815508DF817508DF819501A2304AA39
:1098800031462846FFF7A4FE2770F0E6FFF78EFC6E
:1098900080462422002104A800F06EFAD8F8003097
:1098A0000493D8F804300593D8F808300693FFF7EE
:1098B00067FE00258DF81C008DF81D50FFF7C2FDD6
:1098C0000DF11D0E2B46C3F1200CA3F1200520FA4B
:1098D00003F201FA0CFC42EA0C0221FA05F5083306
:1098E0002A43402B0EF8012FEDD1FFF7B1FD0DF10A
:1098F000250E0023C3F1200CA3F1200520FA03F26A
:1099000001FA0CFC42EA0C0221FA05F508332A435D
:10991000402B0EF8012FEDD1FFF7F8FD8DF82E004A
:10992000FEF7B0FC030A8DF82F008DF83030030CE1
:10993000000E8DF832008DF8313098F80C3098F820
:109940000D209B0043EAC2038DF8333000230093BF
:1099500004AA2423314640F2011093E7F4060020C4
:10996000F50600208BB3637A03F00105FFF716FCC0
:10997000002D80464FF000014FF0A5020DF11100BF
:109980000CBF4FF09C094FF0A60900F0F5F94B23EE
:109990008DF81030A8F1020104AB08F1940031F801
:1099A000022F9A7088424FEA1222DA7003F1020302
:1099B000F5D1D8F8E4302A934DB90023009304AAD6
:1099C0004B4631464FF481705CE71D46CEE708F107
:1099D00095080022012018F8013F6BB1D1082EAB89
:1099E000643953FA81F102F0070311F8A85C00FA18
:1099F00003F32B4301F8A83C0132D2B24B2AEAD13F
:109A0000DBE7FFF7CFFB0021054697220DF11100A0
:109A100000F0B2F94B238DF81030A91E04AB943539
:109A200031F9022F9A70A9424FEA1222DA7003F13B
:109A30000203F5D10023009304AA9823314640F293
:109A400003101FE7FFF7FEFC80468946FFF700FD85
:109A50000DF1100E0023C3F1200CA3F1200528FA0C
:109A600003F209FA0CFC42EA0C0229FA05F5083364
:109A70002A43402B0EF8012BEDD10DF1170E0023D8
:109A8000C3F1200CA3F1200520FA03F201FA0CFC2B
:109A900042EA0C0221FA05F508332A43402B0EF85E
:109AA000012FEDD10023009310230DEB030231466B
:109AB0004FF48270E6E6FFF7FDF9002302460093BB
:109AC0003146E22340F20120DCE6E22B06D00222FE
:109AD000314640F20220FFF7B1FDD5E63B4B3C4852
:109AE0001A889B78ADF810200DF10E018DF8123018
:109AF000FFF792F8BDF80E308DF8113000384FEABC
:109B0000132318BF01208DF8123000238DF81000A8
:109B1000009304AA0323314640F20220B2E6E22B6E
:109B200004D00222314640F20320D4E72848FFF750
:109B3000C5F9031E18BF01238DF81030FF238DF8DF
:109B400011308DF8123058B121480DF10E01FFF798
:109B500063F8BDF80E308DF811301B0A8DF8123005
:109B60000023009304AA0323314640F2032089E630
:109B7000E22B04D0022231464FF40170ABE71448C7
:109B8000FFF7AEF9002814BF052300238DF810302D
:109B900014BF01230023009304AA012331464FF48C
:109BA00001706FE6D4F809200A4B9A4201D00B22CB
:109BB0003CE6002300931A4631462846FFF708FD8D
:109BC000FFF7E4FC60E6032230E600BFEC9F0008EC
:109BD000FD06002007B007B010B5FFF7FFF905211B
:109BE00004460020FEF794FE05210120FEF790FEBA
:109BF000FFF78EFCFFF72EFD14B11120FFF72EFCAE
:109C00000C4B45F255521A6003225A6040F2E24270
:109C10009A604CF6CC421A60FEF734FB064B186093
:109C2000FEF730FB054B1860FEF72CFB044B186069
:109C300010BD00BF00300040100900200C090020BA
:109C4000080900202DE9F04FDFF8E480DFF8E49008
:109C500089B0FEF717FB384A4AF6AA231360D8F8F2
:109C60000030C31A632B044608D9C8F80000FFF778
:109C7000F1F9022802D11520FFF7F0FBD9F80030E6
:109C8000E31AB3F5FA7F03D3C9F80040FFF71CFAD3
:109C90002A4A1368E31A632B02D91460FFF76CFA9F
:109CA000FFF708F90646FFF779FA0446FFF77AFA54
:109CB0000546FFF77BFA3346024629462046FFF762
:109CC000A1FAFFF7BFFB04460D46FFF7C1FB14F0F6
:109CD000C17FCDE9040102D0FFF716FCFEE7FFF7D4
:109CE0005DFA8246FFF75EFA8346FFF75FFA07AF39
:109CF00059468DE8B00002465046FFF713FCDDE9F7
:109D000004233846CDE9002322462B46FFF7C6FB45
:109D1000FFF744FA0746FFF733FC2246CDE9000679
:109D20002B463846FFF73CFCFFF79CFC91E700BF51
:109D3000100900200C090020003000400809002014
:109D400008B5FEF7AFFAFEF751FAFEF739FBFEF75A
:109D500073FBFEF7F7FBFEF70CFCFEF711FC054862
:109D60002821FEF749FBFFF737FFFFF76BFF0020C5
:109D700008BD00BFE4A0000802440346934200D19E
:109D8000704703F8011BF9E770B50D4B0D4C002629
:109D90001D1BB6EBA50F09D100F0BAF90A4C0B4B0D
:109DA00000261D1BB6EBA50F05D170BD54F8043B72
:109DB00098470136EDE754F8043B98470136F1E740
:109DC0000000000000000000000000000000000093
:109DD0000A44914200F1FF3300D1704710B511F8E9
:109DE000014B03F8014F9142F9D110BD0000211041
:109DF000422063308440A550C660E77008812991F5
:109E00004AA16BB18CC1ADD1CEE1EFF1311210029C
:109E100073325222B5529442F772D6623993188344
:109E20007BB35AA3BDD39CC3FFF3DEE36224433468
:109E300020040114E664C774A44485546AA54BB594
:109E400028850995EEE5CFF5ACC58DD5533672263C
:109E500011163006D776F6669556B4465BB77AA7E4
:109E600019973887DFF7FEE79DD7BCC7C448E55888
:109E70008668A7784008611802282338CCC9EDD934
:109E80008EE9AFF9488969990AA92BB9F55AD44ADC
:109E9000B77A966A711A500A333A122AFDDBDCCB84
:109EA000BFFB9EEB799B588B3BBB1AABA66C877CA8
:109EB000E44CC55C222C033C600C411CAEED8FFDD4
:109EC000ECCDCDDD2AAD0BBD688D499D977EB66E7C
:109ED000D55EF44E133E322E511E700E9FFFBEEF24
:109EE000DDDFFCCF1BBF3AAF599F788F8891A981E6
:109EF000CAB1EBA10CD12DC14EF16FE18010A100D0
:109F0000C230E3200450254046706760B9839893BF
:109F1000FBA3DAB33DC31CD37FE35EF3B10290121F
:109F2000F322D2323542145277625672EAB5CBA58B
:109F3000A89589856EF54FE52CD50DC5E234C3246F
:109F4000A01481046674476424540544DBA7FAB75F
:109F50009987B8975FE77EF71DC73CD7D326F236BF
:109F60009106B01657667676154634564CD96DC9AB
:109F70000EF92FE9C899E9898AB9ABA9445865480F
:109F800006782768C018E1088238A3287DCB5CDBFF
:109F90003FEB1EFBF98BD89BBBAB9ABB754A545A5F
:109FA000376A167AF10AD01AB32A923A2EFD0FEDCB
:109FB0006CDD4DCDAABD8BADE89DC98D267C076CAF
:109FC000645C454CA23C832CE01CC10C1FEF3EFF9F
:109FD0005DCF7CDF9BAFBABFD98FF89F176E367EFF
:109FE000554E745E932EB23ED10EF01E00FFFF0060
:109FF0000C000E000D000F000400060008000A000F
:10A0000009000100CCBB0100E200010001000000DA
:10A010000000000000000000000000000000000040
:10A020000000000000000000000000000000000030
:10A030000000000000000000000000000000000020
:10A0400000004B4B0000BE0AB80B36106810D80E4B
:10A050000A00740E00009001C20126025802BC02E0
:10A06000000038FF0000A0860100803801005A007F
:10A0700010270000050088130000E8030000050019
:10A080000000F4010000FFFFFFFFFFFFFFFFFF07DD
:10A09000FFFFFFFFFFFFFFFFFF07FFFFFFFFFFFFC8
:10A0A000FFFFFF07E803000000000000E8030000D6
:10A0B000E8030000000000000005000000000000B0
:10A0C0000000000000000000000000000000000090
:10A0D0000000000000000000000000000000000080
:10A0E000000000000D0A2D2D2D20424D532076300A
:10A0F0002E312E302048575F50524F46494C453D37
:10A10000307830303031202D2D2D0D0A0000000028
:10A11000F8B500BFF8BC08BC9E467047F8B500BF54
:08A12000F8BC08BC9E46704724
:0400000508008189E5
:00000001FF
